:100000006F00803800000000320100003401000061
:1000100000000000000000000000000000000000E0
:1000200000000000000000000000000000000000D0
:100030008C010000000000008603000000000000AA
:10004000860300008603000086030000860300008C
:10005000860300008603000086030000860300007C
:10006000860300008603000086030000860300006C
:10007000860300008603000086030000860300005C
:10008000860300008603000086030000860300004C
:1000900086030000860300008603000000000000C5
:1000A000511126C022C206C4828282441244A24058
:1000B00031018280634E050263C305042E86AA8542
:1000C0007D5515C285466378B6006356C0000606A6
:1000D0008606E36CB6FE014563E4C500918D558D3F
:1000E00085820582F5FA82808682C93F2E858282CA
:1000F0003305A04063D70500B305B040C1B7B305D1
:10010000B0408682653F3305A0408282868263C705
:100110000500634905005D372E858282B305B04036
:10012000E35B05FE3305A040513F3305B0408282BA
:10013000000001A0B707EFBE37E700E0938707088C
:100140003CC701A0EFF2DFF551118545414502C0E2
:1001500002C202C4412E85477C80C1473EC48A85C5
:100160008D47371501403EC2C12C31013DBF0567A7
:10017000B7F700E0930677BB94CB23A40700AD4606
:1001800094C3B7E700E023A0E7108280130181FD4C
:100190002ACA2EC83715014085453EC006D216D062
:1001A0001ACE1ECC32C636C43AC2292613361500E2
:1001B0008545371501402126B7F700E023A2070047
:1001C000925082527243E2435245C2453246A246A1
:1001D000124782471301810273002030EFF25FEC77
:1001E0003D2A0545D524B93F593701A0EFF25FEB11
:1001F000371402401C403707FFF8611193E71700DE
:100200001CC05C404145F98F5CC01C403707F7FEBD
:100210007D17F98F1CC01C403707FCFF7D17F98F35
:100220001CC05C4041777D17F98F5CC0B7079F0009
:100230001CC445241C4C3706020093E707021CCC63
:10024000B717014003A70740938607401377F7F0DD
:1002500023A0E74003A707401367070823A0E74050
:1002600089479CCA02C002C21C4C37070140A166E4
:1002700093E717001CCC5C43D58F5CC31C404167DF
:10028000B7160240D98F1CC009679C42F18F3EC24D
:10029000824785073EC0924781E78247E397E7FEA2
:1002A000B71702409C431397E7006358070685473A
:1002B0003EC2124785476310F706B72702409843AE
:1002C000C176FD16719B98C398431367170098C3B6
:1002D000B7170240D843D8C3D843758FD8C3D84383
:1002E000C166558FD8C39843B7060001558F98C390
:1002F000984393166700E3DD06FED843B716024025
:10030000719BD8C3D84313672700D8C32147DC4269
:10031000B18BE39EE7FE210149BB02C259BFEFF258
:100320003FD8371702405C43370400209146B18B19
:10033000130404016385D700A1466380D704B7374F
:100340006E01938707601CC0B7160240DC4208406C
:10035000918313F7F700B707002093870700BA9738
:100360008C23DC4293F5F50F93F707083357B5005C
:1003700099E3A9332A8718C00DBB5C43B777DC0229
:10038000938707C0C9B701A0970100209381014955
:10039000138181FE1305000A97050020938585C609
:1003A00017060020130606C663FAC500832205005F
:1003B00023A0550011059105E3EAC5FE1305405041
:1003C00097050020938505C417060020130606C56F
:1003D00063FAC5008322050023A05500110591058D
:1003E000E3EAC5FE17050020130545C39705002065
:1003F000938505C36377B500232005001105E36DE0
:10040000B5FEB722000093820288739002308D42BD
:1004100073904280970200009382C2BE93E2320042
:1004200073905230EFF09FDC97020000938242DB22
:100430007390123473002030944593F7060193F2C1
:10044000F60081C7DC41B3E2F20083D3050093F7E5
:10045000F30FA5C303230500611122C226C0814703
:10046000130480029304800405473316F70033F722
:10047000C3006312E602939527003D473317B70088
:100480001347F7FF33736700B395B20033E365009A
:10049000639D860050C985072147E397E7FC124416
:1004A00023206500824421018280E39696FE10C9D4
:1004B000DDB7828048456D8D3335A000828019C23A
:1004C0000CC982804CC98280B707002023ACA700EA
:1004D0008280371702401C430E0593F777F05D8D3D
:1004E00008C3828099C5371702401C4F5D8D08CF25
:1004F0008280B7170240984F1345F5FF798D88CF5A
:0405000082800000F5
:10050400010203040506070801020304050607089F
:08051400006CDC020000000095
:00000001FF
